{
  "contractName": "SensorContract",
  "abi": [
    {
      "inputs": [],
      "stateMutability": "nonpayable",
      "type": "constructor"
    },
    {
      "anonymous": false,
      "inputs": [
        {
          "indexed": true,
          "internalType": "address",
          "name": "owner",
          "type": "address"
        },
        {
          "indexed": true,
          "internalType": "address",
          "name": "spender",
          "type": "address"
        },
        {
          "indexed": false,
          "internalType": "uint256",
          "name": "value",
          "type": "uint256"
        }
      ],
      "name": "Approval",
      "type": "event"
    },
    {
      "anonymous": false,
      "inputs": [
        {
          "indexed": true,
          "internalType": "address",
          "name": "from",
          "type": "address"
        },
        {
          "indexed": true,
          "internalType": "address",
          "name": "to",
          "type": "address"
        },
        {
          "indexed": false,
          "internalType": "uint256",
          "name": "value",
          "type": "uint256"
        }
      ],
      "name": "Transfer",
      "type": "event"
    },
    {
      "inputs": [
        {
          "internalType": "address",
          "name": "",
          "type": "address"
        },
        {
          "internalType": "address",
          "name": "",
          "type": "address"
        }
      ],
      "name": "allowed",
      "outputs": [
        {
          "internalType": "uint256",
          "name": "",
          "type": "uint256"
        }
      ],
      "stateMutability": "view",
      "type": "function",
      "constant": true
    },
    {
      "inputs": [
        {
          "internalType": "address",
          "name": "",
          "type": "address"
        }
      ],
      "name": "balances",
      "outputs": [
        {
          "internalType": "uint256",
          "name": "",
          "type": "uint256"
        }
      ],
      "stateMutability": "view",
      "type": "function",
      "constant": true
    },
    {
      "inputs": [],
      "name": "decimals",
      "outputs": [
        {
          "internalType": "uint8",
          "name": "",
          "type": "uint8"
        }
      ],
      "stateMutability": "view",
      "type": "function",
      "constant": true
    },
    {
      "inputs": [],
      "name": "name",
      "outputs": [
        {
          "internalType": "string",
          "name": "",
          "type": "string"
        }
      ],
      "stateMutability": "view",
      "type": "function",
      "constant": true
    },
    {
      "inputs": [],
      "name": "owner",
      "outputs": [
        {
          "internalType": "address",
          "name": "",
          "type": "address"
        }
      ],
      "stateMutability": "view",
      "type": "function",
      "constant": true
    },
    {
      "inputs": [],
      "name": "symbol",
      "outputs": [
        {
          "internalType": "string",
          "name": "",
          "type": "string"
        }
      ],
      "stateMutability": "view",
      "type": "function",
      "constant": true
    },
    {
      "inputs": [],
      "name": "totalSupply",
      "outputs": [
        {
          "internalType": "uint256",
          "name": "",
          "type": "uint256"
        }
      ],
      "stateMutability": "view",
      "type": "function",
      "constant": true
    },
    {
      "inputs": [
        {
          "internalType": "address",
          "name": "to",
          "type": "address"
        },
        {
          "internalType": "uint256",
          "name": "value",
          "type": "uint256"
        }
      ],
      "name": "transfer",
      "outputs": [
        {
          "internalType": "bool",
          "name": "",
          "type": "bool"
        }
      ],
      "stateMutability": "nonpayable",
      "type": "function"
    },
    {
      "inputs": [
        {
          "internalType": "address",
          "name": "who",
          "type": "address"
        }
      ],
      "name": "balanceOf",
      "outputs": [
        {
          "internalType": "uint256",
          "name": "",
          "type": "uint256"
        }
      ],
      "stateMutability": "view",
      "type": "function",
      "constant": true
    },
    {
      "inputs": [
        {
          "internalType": "address",
          "name": "tokenOwner",
          "type": "address"
        },
        {
          "internalType": "address",
          "name": "spender",
          "type": "address"
        }
      ],
      "name": "allowance",
      "outputs": [
        {
          "internalType": "uint256",
          "name": "",
          "type": "uint256"
        }
      ],
      "stateMutability": "view",
      "type": "function",
      "constant": true
    },
    {
      "inputs": [
        {
          "internalType": "address",
          "name": "spender",
          "type": "address"
        },
        {
          "internalType": "uint256",
          "name": "value",
          "type": "uint256"
        }
      ],
      "name": "approve",
      "outputs": [
        {
          "internalType": "bool",
          "name": "",
          "type": "bool"
        }
      ],
      "stateMutability": "nonpayable",
      "type": "function"
    },
    {
      "inputs": [
        {
          "internalType": "address",
          "name": "from",
          "type": "address"
        },
        {
          "internalType": "address",
          "name": "to",
          "type": "address"
        },
        {
          "internalType": "uint256",
          "name": "value",
          "type": "uint256"
        }
      ],
      "name": "transferFrom",
      "outputs": [
        {
          "internalType": "bool",
          "name": "",
          "type": "bool"
        }
      ],
      "stateMutability": "nonpayable",
      "type": "function"
    }
  ],
  "bytecode": "0x60806040526040518060400160405280600c81526020017f53656e736f7220546f6b656e00000000000000000000000000000000000000008152506000908051906020019062000051929190620001ad565b506040518060400160405280600381526020017f53454e0000000000000000000000000000000000000000000000000000000000815250600190805190602001906200009f929190620001ad565b506012600260006101000a81548160ff021916908360ff160217905550600260009054906101000a900460ff1660ff16600a620000dd9190620003ea565b620f4240620000ed91906200043b565b600355348015620000fd57600080fd5b5033600460006101000a81548173ffffffffffffffffffffffffffffffffffffffff021916908373ffffffffffffffffffffffffffffffffffffffff16021790555060035460056000600460009054906101000a900473ffffffffffffffffffffffffffffffffffffffff1673ffffffffffffffffffffffffffffffffffffffff1673ffffffffffffffffffffffffffffffffffffffff1681526020019081526020016000208190555062000501565b828054620001bb90620004cb565b90600052602060002090601f016020900481019282620001df57600085556200022b565b82601f10620001fa57805160ff19168380011785556200022b565b828001600101855582156200022b579182015b828111156200022a5782518255916020019190600101906200020d565b5b5090506200023a91906200023e565b5090565b5b80821115620002595760008160009055506001016200023f565b5090565b7f4e487b7100000000000000000000000000000000000000000000000000000000600052601160045260246000fd5b60008160011c9050919050565b6000808291508390505b6001851115620002eb57808604811115620002c357620002c26200025d565b5b6001851615620002d35780820291505b8081029050620002e3856200028c565b9450620002a3565b94509492505050565b600082620003065760019050620003d9565b81620003165760009050620003d9565b81600181146200032f57600281146200033a5762000370565b6001915050620003d9565b60ff8411156200034f576200034e6200025d565b5b8360020a9150848211156200036957620003686200025d565b5b50620003d9565b5060208310610133831016604e8410600b8410161715620003aa5782820a905083811115620003a457620003a36200025d565b5b620003d9565b620003b9848484600162000299565b92509050818404811115620003d357620003d26200025d565b5b81810290505b9392505050565b6000819050919050565b6000620003f782620003e0565b91506200040483620003e0565b9250620004337fffffffffffffffffffffffffffffffffffffffffffffffffffffffffffffffff8484620002f4565b905092915050565b60006200044882620003e0565b91506200045583620003e0565b9250817fffffffffffffffffffffffffffffffffffffffffffffffffffffffffffffffff04831182151516156200049157620004906200025d565b5b828202905092915050565b7f4e487b7100000000000000000000000000000000000000000000000000000000600052602260045260246000fd5b60006002820490506001821680620004e457607f821691505b60208210811415620004fb57620004fa6200049c565b5b50919050565b610fc780620005116000396000f3fe608060405234801561001057600080fd5b50600436106100b45760003560e01c80635c658165116100715780635c658165146101a357806370a08231146101d35780638da5cb5b1461020357806395d89b4114610221578063a9059cbb1461023f578063dd62ed3e1461026f576100b4565b806306fdde03146100b9578063095ea7b3146100d757806318160ddd1461010757806323b872dd1461012557806327e235e314610155578063313ce56714610185575b600080fd5b6100c161029f565b6040516100ce9190610b23565b60405180910390f35b6100f160048036038101906100ec9190610bde565b61032d565b6040516100fe9190610c39565b60405180910390f35b61010f61041f565b60405161011c9190610c63565b60405180910390f35b61013f600480360381019061013a9190610c7e565b610425565b60405161014c9190610c39565b60405180910390f35b61016f600480360381019061016a9190610cd1565b610717565b60405161017c9190610c63565b60405180910390f35b61018d61072f565b60405161019a9190610d1a565b60405180910390f35b6101bd60048036038101906101b89190610d35565b610742565b6040516101ca9190610c63565b60405180910390f35b6101ed60048036038101906101e89190610cd1565b610767565b6040516101fa9190610c63565b60405180910390f35b61020b6107b0565b6040516102189190610d84565b60405180910390f35b6102296107d6565b6040516102369190610b23565b60405180910390f35b61025960048036038101906102549190610bde565b610864565b6040516102669190610c39565b60405180910390f35b61028960048036038101906102849190610d35565b610a03565b6040516102969190610c63565b60405180910390f35b600080546102ac90610dce565b80601f01602080910402602001604051908101604052809291908181526020018280546102d890610dce565b80156103255780601f106102fa57610100808354040283529160200191610325565b820191906000526020600020905b81548152906001019060200180831161030857829003601f168201915b505050505081565b600081600660003373ffffffffffffffffffffffffffffffffffffffff1673ffffffffffffffffffffffffffffffffffffffff16815260200190815260200160002060008573ffffffffffffffffffffffffffffffffffffffff1673ffffffffffffffffffffffffffffffffffffffff168152602001908152602001600020819055508273ffffffffffffffffffffffffffffffffffffffff163373ffffffffffffffffffffffffffffffffffffffff167f8c5be1e5ebec7d5bd14f71427d1e84f3dd0314c0f7b2291e5b200ac8c7c3b9258460405161040d9190610c63565b60405180910390a36001905092915050565b60035481565b600081600560008673ffffffffffffffffffffffffffffffffffffffff1673ffffffffffffffffffffffffffffffffffffffff1681526020019081526020016000205410156104a9576040517f08c379a00000000000000000000000000000000000000000000000000000000081526004016104a090610e4c565b60405180910390fd5b81600660008673ffffffffffffffffffffffffffffffffffffffff1673ffffffffffffffffffffffffffffffffffffffff16815260200190815260200160002060003373ffffffffffffffffffffffffffffffffffffffff1673ffffffffffffffffffffffffffffffffffffffff168152602001908152602001600020541015610568576040517f08c379a000000000000000000000000000000000000000000000000000000000815260040161055f90610eb8565b60405180910390fd5b81600560008673ffffffffffffffffffffffffffffffffffffffff1673ffffffffffffffffffffffffffffffffffffffff16815260200190815260200160002060008282546105b79190610f07565b9250508190555081600560008573ffffffffffffffffffffffffffffffffffffffff1673ffffffffffffffffffffffffffffffffffffffff168152602001908152602001600020600082825461060d9190610f3b565b9250508190555081600660008673ffffffffffffffffffffffffffffffffffffffff1673ffffffffffffffffffffffffffffffffffffffff16815260200190815260200160002060003373ffffffffffffffffffffffffffffffffffffffff1673ffffffffffffffffffffffffffffffffffffffff16815260200190815260200160002060008282546106a09190610f07565b925050819055508273ffffffffffffffffffffffffffffffffffffffff168473ffffffffffffffffffffffffffffffffffffffff167fddf252ad1be2c89b69c2b068fc378daa952ba7f163c4a11628f55a4df523b3ef846040516107049190610c63565b60405180910390a3600190509392505050565b60056020528060005260406000206000915090505481565b600260009054906101000a900460ff1681565b6006602052816000526040600020602052806000526040600020600091509150505481565b6000600560008373ffffffffffffffffffffffffffffffffffffffff1673ffffffffffffffffffffffffffffffffffffffff168152602001908152602001600020549050919050565b600460009054906101000a900473ffffffffffffffffffffffffffffffffffffffff1681565b600180546107e390610dce565b80601f016020809104026020016040519081016040528092919081815260200182805461080f90610dce565b801561085c5780601f106108315761010080835404028352916020019161085c565b820191906000526020600020905b81548152906001019060200180831161083f57829003601f168201915b505050505081565b600081600560003373ffffffffffffffffffffffffffffffffffffffff1673ffffffffffffffffffffffffffffffffffffffff1681526020019081526020016000205410156108e8576040517f08c379a00000000000000000000000000000000000000000000000000000000081526004016108df90610e4c565b60405180910390fd5b81600560003373ffffffffffffffffffffffffffffffffffffffff1673ffffffffffffffffffffffffffffffffffffffff16815260200190815260200160002060008282546109379190610f07565b9250508190555081600560008573ffffffffffffffffffffffffffffffffffffffff1673ffffffffffffffffffffffffffffffffffffffff168152602001908152602001600020600082825461098d9190610f3b565b925050819055508273ffffffffffffffffffffffffffffffffffffffff163373ffffffffffffffffffffffffffffffffffffffff167fddf252ad1be2c89b69c2b068fc378daa952ba7f163c4a11628f55a4df523b3ef846040516109f19190610c63565b60405180910390a36001905092915050565b6000600660008473ffffffffffffffffffffffffffffffffffffffff1673ffffffffffffffffffffffffffffffffffffffff16815260200190815260200160002060008373ffffffffffffffffffffffffffffffffffffffff1673ffffffffffffffffffffffffffffffffffffffff16815260200190815260200160002054905092915050565b600081519050919050565b600082825260208201905092915050565b60005b83811015610ac4578082015181840152602081019050610aa9565b83811115610ad3576000848401525b50505050565b6000601f19601f8301169050919050565b6000610af582610a8a565b610aff8185610a95565b9350610b0f818560208601610aa6565b610b1881610ad9565b840191505092915050565b60006020820190508181036000830152610b3d8184610aea565b905092915050565b600080fd5b600073ffffffffffffffffffffffffffffffffffffffff82169050919050565b6000610b7582610b4a565b9050919050565b610b8581610b6a565b8114610b9057600080fd5b50565b600081359050610ba281610b7c565b92915050565b6000819050919050565b610bbb81610ba8565b8114610bc657600080fd5b50565b600081359050610bd881610bb2565b92915050565b60008060408385031215610bf557610bf4610b45565b5b6000610c0385828601610b93565b9250506020610c1485828601610bc9565b9150509250929050565b60008115159050919050565b610c3381610c1e565b82525050565b6000602082019050610c4e6000830184610c2a565b92915050565b610c5d81610ba8565b82525050565b6000602082019050610c786000830184610c54565b92915050565b600080600060608486031215610c9757610c96610b45565b5b6000610ca586828701610b93565b9350506020610cb686828701610b93565b9250506040610cc786828701610bc9565b9150509250925092565b600060208284031215610ce757610ce6610b45565b5b6000610cf584828501610b93565b91505092915050565b600060ff82169050919050565b610d1481610cfe565b82525050565b6000602082019050610d2f6000830184610d0b565b92915050565b60008060408385031215610d4c57610d4b610b45565b5b6000610d5a85828601610b93565b9250506020610d6b85828601610b93565b9150509250929050565b610d7e81610b6a565b82525050565b6000602082019050610d996000830184610d75565b92915050565b7f4e487b7100000000000000000000000000000000000000000000000000000000600052602260045260246000fd5b60006002820490506001821680610de657607f821691505b60208210811415610dfa57610df9610d9f565b5b50919050565b7f496e73756666696369656e742062616c616e6365000000000000000000000000600082015250565b6000610e36601483610a95565b9150610e4182610e00565b602082019050919050565b60006020820190508181036000830152610e6581610e29565b9050919050565b7f4e6f7420616c6c6f77656420746f207370656e64000000000000000000000000600082015250565b6000610ea2601483610a95565b9150610ead82610e6c565b602082019050919050565b60006020820190508181036000830152610ed181610e95565b9050919050565b7f4e487b7100000000000000000000000000000000000000000000000000000000600052601160045260246000fd5b6000610f1282610ba8565b9150610f1d83610ba8565b925082821015610f3057610f2f610ed8565b5b828203905092915050565b6000610f4682610ba8565b9150610f5183610ba8565b9250827fffffffffffffffffffffffffffffffffffffffffffffffffffffffffffffffff03821115610f8657610f85610ed8565b5b82820190509291505056fea26469706673582212203b6ee19387d8bc070647fd9997dd16dee9eabd4659906ebbe4f05886047f2c5e64736f6c634300080a0033",
  "immutableReferences": {},
  "source": "// SPDX-License-Identifier: MIT\r\npragma solidity ^0.8.10;\r\n\r\ninterface IERC20 {\r\n    /**\r\n     * @dev Przesya okrelon ilo tokenw (`value`) na adres `to`.\r\n     * Musi zwrci `true`, jeli transakcja si powiedzie.\r\n     * @param to Adres odbiorcy tokenw.\r\n     * @param value Liczba tokenw do przesania.\r\n     * @return Zwraca `true`, jeli operacja si powiedzie.\r\n     */\r\n    function transfer(address to, uint256 value) external returns (bool);\r\n\r\n    /**\r\n     * @dev Zwraca saldo tokenw znajdujce si na koncie danego adresu (`who`).\r\n     * @param who Adres, dla ktrego chcemy sprawdzi saldo.\r\n     * @return Liczba tokenw naleca do podanego adresu.\r\n     */\r\n    function balanceOf(address who) external view returns (uint256);\r\n\r\n    /**\r\n     * @dev Sprawdza, ile tokenw waciciel (`owner`) zatwierdzi do uycia przez adres (`spender`).\r\n     * @param tokenOwner Adres waciciela tokenw.\r\n     * @param spender Adres, ktry ma prawo do wykorzystania tokenw.\r\n     * @return Liczba tokenw, ktre adres `spender` moe wyda.\r\n     */\r\n    function allowance(address tokenOwner, address spender) external view returns (uint256);\r\n\r\n    /**\r\n     * @dev Zatwierdza adresowi (`spender`) moliwo wydania okrelonej liczby tokenw (`value`) \r\n     * w imieniu waciciela kontraktu.\r\n     * Musi zwrci `true`, jeli operacja si powiedzie.\r\n     * @param spender Adres, ktry bdzie mg wyda tokeny.\r\n     * @param value Liczba tokenw do zatwierdzenia.\r\n     * @return Zwraca `true`, jeli operacja si powiedzie.\r\n     */\r\n    function approve(address spender, uint256 value) external returns (bool);\r\n\r\n    /**\r\n     * @dev Przesya tokeny z jednego adresu (`from`) na inny (`to`), jeli zostay wczeniej zatwierdzone.\r\n     * Musi zwrci `true`, jeli operacja si powiedzie.\r\n     * @param from Adres, z ktrego tokeny s przesyane.\r\n     * @param to Adres, na ktry tokeny s przesyane.\r\n     * @param value Liczba tokenw do przesania.\r\n     * @return Zwraca `true`, jeli operacja si powiedzie.\r\n     */\r\n    function transferFrom(address from, address to, uint256 value) external returns (bool);\r\n\r\n    /**\r\n     * @dev Zwraca cakowit liczb tokenw dostpnych w systemie.\r\n     * @return Cakowita liczba tokenw w obiegu.\r\n     */\r\n    function totalSupply() external view returns (uint256);\r\n}\r\n\r\ncontract SensorContract is IERC20 {\r\n    string public name = \"Sensor Token\";\r\n    string public symbol = \"SEN\";\r\n    uint8 public decimals = 18; // ile bitow reprezentuje ten token\r\n    uint256 public totalSupply = 1000000 * 10 ** uint256(decimals);\r\n    address public owner;\r\n    mapping(address => uint256) public balances;\r\n    mapping(address => mapping(address => uint256)) public allowed; // mapping  owner kontraktu => (klucz klienta  => warto)\r\n\r\n    constructor() {\r\n        owner = msg.sender;\r\n        balances[owner] = totalSupply;\r\n    }\r\n\r\n    function transfer(address to, uint256 value) public override returns (bool) {\r\n        require(balances[msg.sender] >= value, \"Insufficient balance\");\r\n        balances[msg.sender] -= value;\r\n        balances[to] += value;\r\n        emit Transfer(msg.sender, to, value);\r\n        return true;\r\n    }\r\n\r\n    function balanceOf(address who) public view override returns (uint256) {\r\n        return balances[who];\r\n    }\r\n\r\n    function allowance(address tokenOwner, address spender) public view override returns (uint256) {\r\n        return allowed[tokenOwner][spender];\r\n    }\r\n\r\n    function approve(address spender, uint256 value) public override returns (bool) {\r\n        allowed[msg.sender][spender] = value;\r\n        emit Approval(msg.sender, spender, value);\r\n        return true;\r\n    }\r\n\r\n    function transferFrom(address from, address to, uint256 value) public override returns (bool) {\r\n        require(balances[from] >= value, \"Insufficient balance\");\r\n        require(allowed[from][msg.sender] >= value, \"Not allowed to spend\");\r\n        balances[from] -= value;\r\n        balances[to] += value;\r\n        allowed[from][msg.sender] -= value;\r\n        emit Transfer(from, to, value);\r\n        return true;\r\n    }\r\n\r\n    event Transfer(address indexed from, address indexed to, uint256 value);\r\n    event Approval(address indexed owner, address indexed spender, uint256 value);\r\n}\r\n",
  "sourcePath": "C:\\Studia\\Semestr7\\Serwisy Internetowe .NET\\RIM\\blockchain\\truffle\\contracts\\SensorsContract.sol",
  "compiler": {
    "name": "solc",
    "version": "0.8.10+commit.fc410830.Emscripten.clang"
  },
  "schemaVersion": "3.4.16",
  "updatedAt": "2025-01-01T12:55:02.473Z",
  "networkType": "ethereum",
  "devdoc": {
    "kind": "dev",
    "methods": {
      "allowance(address,address)": {
        "details": "Sprawdza, ile tokenw waciciel (`owner`) zatwierdzi do uycia przez adres (`spender`).",
        "params": {
          "spender": "Adres, ktry ma prawo do wykorzystania tokenw.",
          "tokenOwner": "Adres waciciela tokenw."
        },
        "returns": {
          "_0": "Liczba tokenw, ktre adres `spender` moe wyda."
        }
      },
      "approve(address,uint256)": {
        "details": "Zatwierdza adresowi (`spender`) moliwo wydania okrelonej liczby tokenw (`value`)  w imieniu waciciela kontraktu. Musi zwrci `true`, jeli operacja si powiedzie.",
        "params": {
          "spender": "Adres, ktry bdzie mg wyda tokeny.",
          "value": "Liczba tokenw do zatwierdzenia."
        },
        "returns": {
          "_0": "Zwraca `true`, jeli operacja si powiedzie."
        }
      },
      "balanceOf(address)": {
        "details": "Zwraca saldo tokenw znajdujce si na koncie danego adresu (`who`).",
        "params": {
          "who": "Adres, dla ktrego chcemy sprawdzi saldo."
        },
        "returns": {
          "_0": "Liczba tokenw naleca do podanego adresu."
        }
      },
      "transfer(address,uint256)": {
        "details": "Przesya okrelon ilo tokenw (`value`) na adres `to`. Musi zwrci `true`, jeli transakcja si powiedzie.",
        "params": {
          "to": "Adres odbiorcy tokenw.",
          "value": "Liczba tokenw do przesania."
        },
        "returns": {
          "_0": "Zwraca `true`, jeli operacja si powiedzie."
        }
      },
      "transferFrom(address,address,uint256)": {
        "details": "Przesya tokeny z jednego adresu (`from`) na inny (`to`), jeli zostay wczeniej zatwierdzone. Musi zwrci `true`, jeli operacja si powiedzie.",
        "params": {
          "from": "Adres, z ktrego tokeny s przesyane.",
          "to": "Adres, na ktry tokeny s przesyane.",
          "value": "Liczba tokenw do przesania."
        },
        "returns": {
          "_0": "Zwraca `true`, jeli operacja si powiedzie."
        }
      }
    },
    "stateVariables": {
      "totalSupply": {
        "details": "Zwraca cakowit liczb tokenw dostpnych w systemie.",
        "return": "Cakowita liczba tokenw w obiegu.",
        "returns": {
          "_0": "Cakowita liczba tokenw w obiegu."
        }
      }
    },
    "version": 1
  },
  "userdoc": {
    "kind": "user",
    "methods": {},
    "version": 1
  }
}