{
  "contractName": "TemperatureStorage",
  "abi": [
    {
      "inputs": [
        {
          "internalType": "int256",
          "name": "_temperature",
          "type": "int256"
        }
      ],
      "name": "setTemperature",
      "outputs": [],
      "stateMutability": "nonpayable",
      "type": "function"
    },
    {
      "inputs": [],
      "name": "getTemperature",
      "outputs": [
        {
          "internalType": "int256",
          "name": "",
          "type": "int256"
        }
      ],
      "stateMutability": "view",
      "type": "function",
      "constant": true
    }
  ],
  "bytecode": "0x608060405234801561001057600080fd5b5060c78061001f6000396000f3fe6080604052348015600f57600080fd5b506004361060325760003560e01c80636421d04b146037578063a9422e7d146053575b600080fd5b603d607e565b6040518082815260200191505060405180910390f35b607c60048036036020811015606757600080fd5b81019080803590602001909291905050506087565b005b60008054905090565b806000819055505056fea26469706673582212205b2a25ab8e05a4181374f2b14a9a453b7ee502bb8006971bf4e56396c84c439264736f6c63430007060033",
  "immutableReferences": {},
  "source": "// SPDX-License-Identifier: MIT\r\npragma solidity ^0.7.6;\r\n\r\ncontract TemperatureStorage {\r\n    int256 private temperature;\r\n\r\n    // Funkcja zapisywania temperatury\r\n    function setTemperature(int256 _temperature) public {\r\n        temperature = _temperature;\r\n    }\r\n\r\n    // Funkcja odczytu temperatury\r\n    function getTemperature() public view returns (int256) {\r\n        return temperature;\r\n    }\r\n}\r\n",
  "sourcePath": "C:\\Studia\\Semestr7\\Serwisy Internetowe .NET\\RIM\\blockchain\\contracts\\TemperatureStorage.sol",
  "compiler": {
    "name": "solc",
    "version": "0.7.6+commit.7338295f.Emscripten.clang"
  },
  "schemaVersion": "3.4.16",
  "updatedAt": "2024-12-28T10:46:19.529Z",
  "networkType": "ethereum",
  "devdoc": {
    "kind": "dev",
    "methods": {},
    "version": 1
  },
  "userdoc": {
    "kind": "user",
    "methods": {},
    "version": 1
  }
}